:020000040800F2
:100000000028002041150008D1140008D71400086A
:10001000DD140008E3140008E914000800000000E3
:10002000000000000000000000000000EF140008C5
:10003000FB14000800000000071500081315000855
:100040008915000889150008891500088915000818
:100050008915000889150008891500088915000808
:1000600089150008891500088915000889150008F8
:1000700089150008891500088915000889150008E8
:1000800089150008891500088915000889150008D8
:1000900089150008891500088915000889150008C8
:1000A00089150008891500088915000889150008B8
:1000B00021150008891500080000000089150008B6
:1000C00089150008000000000000000089150008E4
:1000D00000000000891500088915000800000000D4
:1000E000891500088915000889150008000000001E
:1000F0000000000000000000000000000000000000
:0C01000000000000000000005FF808F1A3
:10010C0010B5054C237833B9044B13B10448AFF345
:10011C0000800123237010BD60000020000000004F
:10012C00E42B000808B5034B1BB103490348AFF39C
:10013C00008008BD0000000064000020E42B0008D3
:10014C0080B400AF064B1B68012B04D1044B00227A
:10015C001A60012300E000231846BD4680BC70479E
:10016C007C00002080B400AF064B1B68012B04D12F
:10017C00044B00221A60012300E000231846BD4600
:10018C0080BC70478000002080B400AF064B1B6819
:10019C00012B04D1044B00221A60012300E0002340
:1001AC001846BD4680BC70478400002080B400AF68
:1001BC00034B01221A6000BFBD4680BC704700BFD4
:1001CC007C00002080B400AF034B01221A6000BFFA
:1001DC00BD4680BC704700BF8000002080B500AFDA
:1001EC001E4B1B681E4A13601E4B1B681B4A136078
:1001FC0002211D4801F0B0FC03461A46194B1A6047
:10020C00174B1A68154B1B689A4225D1134B1A6869
:10021C00144B1B689A421FD1144B1A68114B1B6864
:10022C009A420DD00F4B1B68104A13600D4B1B6884
:10023C00002B11D1FFF7BAFF0D4BC8221A600BE04F
:10024C000B4B1B68013B0A4A1360094B1B68002BC4
:10025C0002D1064B01221A6000BF80BD04000020B1
:10026C000000002008000020000801400C000020C5
:10027C002000002080B500AF1E4B1B681E4A136087
:10028C001E4B1B681B4A136004211D4801F064FCC3
:10029C0003461A46194B1A60174B1A68154B1B6804
:1002AC009A4225D1134B1A68144B1B689A421FD1E2
:1002BC00144B1A68114B1B689A420DD00F4B1B68DC
:1002CC00104A13600D4B1B68002B11D1FFF77AFFFE
:1002DC000D4BC8221A600BE00B4B1B68013B0A4A02
:1002EC001360094B1B68002B02D1064B01221A60CC
:1002FC0000BF80BD1400002010000020180000205A
:10030C00000801401C0000202000002080B582B0B5
:10031C0000AF78607B68092B00F2808101A252F853
:10032C0023F000BF59030008A1030008E9030008EB
:10033C003104000879040008C1040008090500080C
:10034C005105000899050008E1050008002201216B
:10035C00C64801F018FC00220221C44801F013FC2D
:10036C0000220421C14801F00EFC00220821BF48E4
:10037C0001F009FC00221021BC4801F004FC002211
:10038C002021BA4801F0FFFB01224021B74801F0BF
:10039C00FAFB67E101220121B44801F0F4FB0022D1
:1003AC000221B24801F0EFFB00220421AF4801F01A
:1003BC00EAFB01220821AD4801F0E5FB01221021E6
:1003CC00AA4801F0E0FB01222021A84801F0DBFB48
:1003DC0001224021A54801F0D6FB43E10022012176
:1003EC00A24801F0D0FB00220221A04801F0CBFB77
:1003FC00012204219D4801F0C6FB002208219B48E4
:10040C0001F0C1FB00221021984801F0BCFB012235
:10041C002021964801F0B7FB00224021934801F0BF
:10042C00B2FB1FE100220121904801F0ACFB00223D
:10043C0002218E4801F0A7FB002204218B4801F019
:10044C00A2FB00220821894801F09DFB012210210A
:10045C00864801F098FB01222021844801F093FB8F
:10046C0000224021814801F08EFBFBE0012201219A
:10047C007E4801F088FB002202217C4801F083FBBE
:10048C0000220421794801F07EFB012208217748E3
:10049C0001F079FB01221021744801F074FB002259
:1004AC002021724801F06FFB002240216F4801F0BF
:1004BC006AFBD7E0002201216C4801F064FB0122A9
:1004CC0002216A4801F05FFB00220421674801F019
:1004DC005AFB00220821654801F055FB012210212E
:1004EC00624801F050FB00222021604801F04BFBD8
:1004FC00002240215D4801F046FBB3E000220121BF
:10050C005A4801F040FB01220221584801F03BFB04
:10051C0000220421554801F036FB002208215348E3
:10052C0001F031FB00221021504801F02CFB00227D
:10053C0020214E4801F027FB002240214B4801F0BE
:10054C0022FB8FE000220121484801F01CFB002215
:10055C000221464801F017FB00220421434801F018
:10056C0012FB01220821414801F00DFB0122102150
:10057C003E4801F008FB012220213C4801F003FB1E
:10058C0001224021394801F0FEFA6BE000220121E2
:10059C00364801F0F8FA00220221344801F0F3FA4F
:1005AC0000220421314801F0EEFA002208212F48E4
:1005BC0001F0E9FA002210212C4801F0E4FA0022A3
:1005CC0020212A4801F0DFFA00224021274801F0BF
:1005DC00DAFA47E000220121244801F0D4FA002283
:1005EC000221224801F0CFFA002204211F4801F019
:1005FC00CAFA002208211D4801F0C5FA0122102177
:10060C001A4801F0C0FA00222021184801F0BBFA68
:10061C0000224021154801F0B6FA23E00122012105
:10062C00124801F0B0FA01220221104801F0ABFA95
:10063C00012204210D4801F0A6FA012208210B48E1
:10064C0001F0A1FA01221021084801F09CFA0122C4
:10065C002021064801F097FA01224021034801F0BD
:10066C0092FA00BF00BF0837BD4680BD000C0140A8
:10067C0080B582B000AF78607B68092B00F2BE8138
:10068C0001A252F823F000BFBD06000811070008B4
:10069C0065070008B90700080D0800086108000884
:1006AC00B5080008090900085D090008B10900082F
:1006BC0000228021D04801F066FA00224FF48071AC
:1006CC00CD4801F060FA00224FF40071CA4801F0E5
:1006DC005AFA00224FF48061C74801F054FA002204
:1006EC004FF40061C44801F04EFA00224FF48051DF
:1006FC00C14801F048FA01224FF40051BE4801F004
:10070C0042FAA5E101228021BB4801F03CFA00220B
:10071C004FF48071B84801F036FA00224FF40071A2
:10072C00B54801F030FA01224FF48061B24801F073
:10073C002AFA01224FF40061AF4801F024FA012299
:10074C004FF48051AC4801F01EFA01224FF40051D5
:10075C00A94801F018FA7BE100228021A64801F09B
:10076C0012FA00224FF48071A34801F00CFA012216
:10077C004FF40071A04801F006FA00224FF480619A
:10078C009D4801F000FA00224FF400619A4801F0F4
:10079C00FAF901224FF48051974801F0F4F9002244
:1007AC004FF40051944801F0EEF951E10022802100
:1007BC00914801F0E8F900224FF480718E4801F065
:1007CC00E2F900224FF400718B4801F0DCF90022B1
:1007DC004FF48061884801F0D6F901224FF4006192
:1007EC00854801F0D0F901224FF48051824801F084
:1007FC00CAF900224FF400517F4801F0C4F927E1F7
:10080C00012280217C4801F0BEF900224FF4807156
:10081C00794801F0B8F900224FF40071764801F0E4
:10082C00B2F901224FF48061734801F0ACF9012256
:10083C004FF40061704801F0A6F900224FF480518A
:10084C006D4801F0A0F900224FF400516A4801F004
:10085C009AF9FDE000228021674801F094F9012209
:10086C004FF48071644801F08EF900224FF400714E
:10087C00614801F088F900224FF480615E4801F074
:10088C0082F901224FF400615B4801F07CF90022EF
:10089C004FF48051584801F076F900224FF4005182
:1008AC00554801F070F9D3E000228021524801F044
:1008BC006AF901224FF480714F4801F064F900226B
:1008CC004FF400714C4801F05EF900224FF4806146
:1008DC00494801F058F900224FF40061464801F0F4
:1008EC0052F900224FF48051434801F04CF9002298
:1008FC004FF40051404801F046F9A9E00022802154
:10090C003D4801F040F900224FF480713A4801F063
:10091C003AF900224FF40071374801F034F9012202
:10092C004FF48061344801F02EF901224FF400613C
:10093C00314801F028F901224FF480512E4801F082
:10094C0022F901224FF400512B4801F01CF97FE0F1
:10095C0000228021284801F016F900224FF4807102
:10096C00254801F010F900224FF40071224801F0E3
:10097C000AF900224FF480611F4801F004F90022AB
:10098C004FF400611C4801F0FEF800224FF4805136
:10099C00194801F0F8F800224FF40051164801F004
:1009AC00F2F855E000228021134801F0ECF8002207
:1009BC004FF48071104801F0E6F800224FF40071FA
:1009CC000D4801F0E0F800224FF480610A4801F074
:1009DC00DAF801224FF40061074801F0D4F8002244
:1009EC004FF48051044801F0CEF800224FF400512E
:1009FC00014801F0C8F82BE0000C014001228021D5
:100A0C00154801F0C0F801224FF48071124801F032
:100A1C00BAF801224FF400710F4801F0B4F801222A
:100A2C004FF480610C4801F0AEF801224FF40061E4
:100A3C00094801F0A8F801224FF48051064801F052
:100A4C00A2F801224FF40051034801F09CF800BFBA
:100A5C0000BF0837BD4680BD000C014080B584B096
:100A6C0000AF78601E4B1B681E4A82FB031292106B
:100A7C00DB17D31AFB601A4B1A681A4B83FB021351
:100A8C009910D317C91A0B469B000B445B00D31A61
:100A9C00BB607B68002B03D07B68012B0ED01BE066
:100AAC0000221021104801F06EF8012220210E487E
:100ABC0001F069F8F868FFF729FC0DE0012210211C
:100ACC00094801F060F800222021074801F05BF88A
:100ADC00B868FFF71BFC00BF00BF1037BD4680BDD8
:100AEC0028000020676666660008014080B584B067
:100AFC0000AF78601E4B1B681E4A82FB03129210DB
:100B0C00DB17D31AFB601A4B1A681A4B83FB0213C0
:100B1C009910D317C91A0B469B000B445B00D31AD0
:100B2C00BB607B68002B03D07B68012B0ED01BE0D5
:100B3C0000224021104801F026F8012280210E48A5
:100B4C0001F021F8F868FFF793FD0DE00122402138
:100B5C00094801F018F800228021074801F013F829
:100B6C00B868FFF785FD00BF00BF1037BD4680BDDC
:100B7C002C000020676666660008014080B500AF57
:100B8C0000F0FEFC00F024F800F0AAF800F05CF88D
:100B9C00094801F061FC094B01221A60084B012243
:100BAC001A60084B01221A60074B0A221A60074B85
:100BBC0064221A60FEE700BF90000020880000202D
:100BCC008C000020240000204C000020300000206D
:100BDC0080B590B000AF07F1180328220021184609
:100BEC0001F0F2FF3B1D00221A605A609A60DA6035
:100BFC001A610223BB610123BB621023FB62002339
:100C0C007B6307F11803184600F0EEFF0346002B38
:100C1C0001D000F0D7F80F237B600023BB600023CA
:100C2C00FB6000233B6100237B613B1D00211846C8
:100C3C0001F05CFA0346002B01D000F0C3F800BFB2
:100C4C004037BD4680BD000080B586B000AF07F1CF
:100C5C00080300221A605A609A60DA603B46002250
:100C6C001A605A601D4B4FF080421A601B4B41F6C4
:100C7C003F725A60194B00229A60184B0922DA60B5
:100C8C00164B00221A61154B00229A61134801F091
:100C9C0093FB0346002B01D000F094F84FF48053E3
:100CAC00BB6007F1080319460C4801F029FD034607
:100CBC00002B01D000F086F800233B6000237B6002
:100CCC003B461946054801F0F1FE0346002B01D0C6
:100CDC0000F078F800BF1837BD4680BD90000020AA
:100CEC0080B586B000AF07F1080300221A605A6085
:100CFC009A60DA60284B9B69274A43F0040393619E
:100D0C00254B9B6903F004037B607B68224B9B693A
:100D1C00214A43F0080393611F4B9B6903F00803BE
:100D2C003B603B68002243F6F0711C4800F02BFF3F
:100D3C00002243F6FF711A4800F025FF0E23BB601A
:100D4C000023FB6001233B6107F10803194613489C
:100D5C0000F086FD43F6F073BB600123FB600023BB
:100D6C003B6102237B6107F1080319460B4800F035
:100D7C0077FD43F6FF73BB600123FB6000233B61EF
:100D8C0002237B6107F108031946054800F068FD52
:100D9C0000BF1837BD4680BD00100240000801405E
:100DAC00000C014080B582B000AF786000F0E6FA2C
:100DBC0000F0AAF8FFF712FAFFF75CFA00BF083749
:100DCC00BD4680BD80B400AF72B600BFFEE7000028
:100DDC0080B500AF454B1B68002B60D1434B6422A0
:100DEC001A60434B1B68002B09D1424B1A68424BCB
:100DFC001B681A44414B1B6813443D4A13603D4B1E
:100E0C001A683D4B1B681A443C4B1B681A44384B00
:100E1C001B689A420CD100F021FA364B1B68384AF9
:100E2C00136000F07BFA344B1B68364A136031E0D8
:100E3C00304B1A68314B1B681A442D4B1B689A4275
:100E4C0006D100F083FA2D4B1B682E4A136021E06B
:100E5C00294B1A68294B1B681A44254B1B689A426C
:100E6C000CD100F013FA244B1B68254A136000F0D8
:100E7C003DFA204B1B68234A13600BE01C4B1A688D
:100E8C001E4B1B689A4205D100F018FA1B4B1B68CD
:100E9C001B4A1360164B1B68013B154A1360134B1E
:100EAC001B68642B06D10020FFF7D8FD0020FFF74C
:100EBC001DFE13E00D4B1B68322B0FD10120FFF7E9
:100ECC00CDFD0120FFF712FE0D4B1B68013B0C4AB8
:100EDC0013600C4B1B68013B0A4A1360034B1B68E5
:100EEC00013B024A136000BF80BD00BF30000020F0
:100EFC004C00002034000020380000203C00002072
:100F0C00280000202C00002080B500AFFFF718F956
:100F1C000346012B0BD1164B1B680133144A13608B
:100F2C00134B1B68042B02DD114B01221A60104B72
:100F3C001B68013B032B17D801A252F823F000BF0A
:100F4C005D0F0008630F0008690F00086F0F0008A1
:100F5C00FFF73EFF09E000F00DF806E000F086F820
:100F6C0003E000F0FFF800E000BF00BF80BD00BF51
:100F7C005000002080B500AF334B02221A60FFF7FF
:100F8C00F1F80346012B17D1304B1B6801332F4A64
:100F9C0013602F4B1B6801332D4A13602B4B1B68BE
:100FAC00632B03DC2A4B1B68632B05DD274B0122CB
:100FBC001A60274B01221A60FFF7E6F80346012B53
:100FCC000DD1224B1B68234A1360204B1A68224B0D
:100FDC001B681A44214B1B681344214A1360214B94
:100FEC001B68002B02D11F4B64221A601D4B1B681F
:100FFC00642B03D01B4B1B68322B1ED14FF480711A
:10100C00194800F0D8FD4FF40061174800F0D3FDEB
:10101C00144B1B68642B06D10020FFF71FFD00202A
:10102C00FFF764FD09E00F4B1B68322B05D1012043
:10103C00FFF714FD0120FFF759FD0A4B1B68013B1C
:10104C00084A136000BF80BD2C0000204000002027
:10105C00280000203400002044000020480000201C
:10106C004C000020300000200008014080B500AF8B
:10107C00334B03221A60FFF775F80346012B17D187
:10108C00304B1B6801332F4A13602F4B1B68013305
:10109C002D4A13602B4B1B68632B03DC2A4B1B68FC
:1010AC00632B05DD274B01221A60274B01221A60A6
:1010BC00FFF76AF80346012B0DD1224B1B68234A1C
:1010CC001360234B1A68234B1B681A441D4B1B6877
:1010DC001344214A1360214B1B68002B02D11F4B78
:1010EC0064221A601D4B1B68642B03D01B4B1B68BE
:1010FC00322B1ED14FF48061194800F05CFD4FF487
:10110C000051174800F057FD144B1B68642B06D197
:10111C000020FFF7A3FC0020FFF7E8FC09E00F4BD1
:10112C001B68322B05D10120FFF798FC0120FFF73B
:10113C00DDFC0A4B1B68013B084A136000BF80BDF5
:10114C002C00002048000020280000203C0000203B
:10115C0040000020440000204C0000203000002003
:10116C000008014080B500AF334B04221A60FEF733
:10117C00F9FF0346012B17D1304B1B6801332F4A63
:10118C0013602F4B1B6801332D4A13602B4B1B68CC
:10119C00632B03DC2A4B1B68632B05DD274B0122D9
:1011AC001A60274B01221A60FEF7EEFF0346012B53
:1011BC000DD1224B1B68234A1360234B1A681F4B1B
:1011CC001B681A44214B1B681344214A1360214BA2
:1011DC001B68002B02D11F4B64221A601D4B1B682D
:1011EC00642B03D01B4B1B68322B1ED14FF40071A8
:1011FC00194800F0E0FC4FF48051174800F0DBFC7C
:10120C00144B1B68642B06D10020FFF727FC002031
:10121C00FFF76CFC09E00F4B1B68322B05D101204A
:10122C00FFF71CFC0120FFF761FC0A4B1B68013B1C
:10123C00084A136000BF80BD2C0000204400002031
:10124C00280000203800002040000020480000202A
:10125C004C000020300000200008014080B500AF99
:10126C0001224FF48071084800F08DFC00224FF4ED
:10127C000071054800F087FC00224FF480610248A1
:10128C0000F081FC00BF80BD0008014080B500AFBC
:10129C0000224FF48071084800F075FC01224FF4D5
:1012AC000071054800F06FFC00224FF48061024889
:1012BC0000F069FC00BF80BD0008014080B500AFA4
:1012CC0000224FF48071084800F05DFC00224FF4BE
:1012DC000071054800F057FC01224FF48061024870
:1012EC0000F051FC00BF80BD0008014080B500AF8C
:1012FC0001224FF40061084800F045FC00224FF435
:10130C008051054800F03FFC00224FF40051024888
:10131C0000F039FC00BF80BD0008014080B500AF73
:10132C0000224FF40061084800F02DFC01224FF41C
:10133C008051054800F027FC00224FF40051024870
:10134C0000F021FC00BF80BD0008014080B500AF5B
:10135C0000224FF40061084800F015FC00224FF405
:10136C008051054800F00FFC01224FF40051024857
:10137C0000F009FC00BF80BD0008014080B400AF44
:10138C00254B1B68002B04DD234B1B68013B224AB9
:10139C001360214B1B68002B04DC204B1B680133B2
:1013AC001E4A13601E4B1B68002B04DD1C4B1B6874
:1013BC00013B1B4A13601A4B1B68002B04DC194BB6
:1013CC001B680133174A1360174B1B68002B04DD95
:1013DC00154B1B68013B144A1360134B1B68002B05
:1013EC0004DC124B1B680133104A1360104B1B6852
:1013FC00002B04DD0E4B1B68013B0D4A13600C4B9C
:10140C001B68002B04DC0B4B1B680133094A13606F
:10141C0000BFBD4680BC7047DC000020D800002017
:10142C00E4000020E0000020EC000020E800002098
:10143C00F4000020F000002080B483B000AF0E4B0D
:10144C009B690D4A43F0010393610B4B9B6903F0BD
:10145C0001037B607B68084BDB69074A43F08053D0
:10146C00D361054BDB6903F080533B603B6800BFE5
:10147C000C37BD4680BC70470010024080B584B06C
:10148C0000AF78607B681B68B3F1804F13D10C4BB5
:10149C00DB690B4A43F00103D361094BDB6903F0B1
:1014AC000103FB60FB68002200211C2000F0A1F965
:1014BC001C2000F0BAF900BF1037BD4680BD00BF3C
:1014CC000010024080B400AFFEE780B400AFFEE72E
:1014DC0080B400AFFEE780B400AFFEE780B400AF8D
:1014EC00FEE780B400AF00BFBD4680BC704780B43F
:1014FC0000AF00BFBD4680BC704780B400AF00BFDA
:10150C00BD4680BC704780B500AF00F07FF800BFCF
:10151C0080BD000080B500AF024800F0E9FF00BFBD
:10152C0080BD00BF9000002080B400AF00BFBD465E
:10153C0080BC70470C480D490D4A002302E0D4587A
:10154C00C4500433C4188C42F9D30A4A0A4C002301
:10155C0001E013600432A242FBD3FFF7E5FF01F078
:10156C000FFBFFF70BFB7047000000206000002012
:10157C00242C000860000020FC000020FEE7000086
:10158C0080B500AF084B1B68074A43F0100313608B
:10159C00032000F023F90F2000F008F8FFF74CFFB0
:1015AC000023184680BD00BF0020024080B582B0E9
:1015BC0000AF7860124B1A68124B1B7819464FF427
:1015CC007A73B3FBF1F3B2FBF3F3184600F03BF97B
:1015DC000346002B01D001230EE07B680F2B0AD8A9
:1015EC00002279684FF0FF3000F003F9064A7B685F
:1015FC001360002300E0012318460837BD4680BD68
:10160C00540000205C0000205800002080B400AF83
:10161C00054B1B781A46054B1B681344034A136091
:10162C0000BFBD4680BC70475C000020F800002065
:10163C0080B400AF024B1B681846BD4680BC704797
:10164C00F800002080B485B000AF78607B6803F0B0
:10165C000703FB600C4BDB68BB60BA684FF6FF03FB
:10166C001340BB60FB681A02BB68134343F0BF63B3
:10167C0043F40033BB60044ABB68D36000BF14372B
:10168C00BD4680BC704700BF00ED00E080B400AFE9
:10169C00044BDB681B0A03F007031846BD4680BCED
:1016AC00704700BF00ED00E080B483B000AF03468C
:1016BC00FB7197F90730002B0BDBFB7903F01F0252
:1016CC00064997F907305B09012000FA02F241F84C
:1016DC00232000BF0C37BD4680BC704700E100E002
:1016EC0080B483B000AF03463960FB7197F90730C3
:1016FC00002B0ADB3B68DAB20C4997F90730120170
:10170C00D2B20B4483F800230AE03B68DAB20849F2
:10171C00FB7903F00F03043B1201D2B20B441A768F
:10172C0000BF0C37BD4680BC704700BF00E100E035
:10173C0000ED00E080B489B000AFF860B9607A6069
:10174C00FB6803F00703FB61FB69C3F10703042B80
:10175C0028BF0423BB61FB690433062B02D9FB6948
:10176C00033B00E000237B614FF0FF32BB6902FAC0
:10177C0003F3DA43BB681A407B699A404FF0FF31A0
:10178C007B6901FA03F3D9437B680B40134318467A
:10179C002437BD4680BC704780B582B000AF7860FE
:1017AC007B68013BB3F1807F01D301230FE00A4A30
:1017BC007B68013B53600F214FF0FF30FFF790FF28
:1017CC00054B00229A60044B07221A60002318462E
:1017DC000837BD4680BD00BF10E000E080B582B088
:1017EC0000AF78607868FFF72DFF00BF0837BD4663
:1017FC0080BD80B586B000AF0346B9607A60FB73DC
:10180C0000237B61FFF742FF78617A68B9687869D9
:10181C00FFF790FF024697F90F3011461846FFF775
:10182C005FFF00BF1837BD4680BD80B582B000AFEA
:10183C000346FB7197F907301846FFF735FF00BFD9
:10184C000837BD4680BD80B582B000AF786078683F
:10185C00FFF7A2FF034618460837BD4680BD0000BF
:10186C0080B48BB000AF7860396000237B620023BA
:10187C003B6261E101227B6A02FA03F3FB613B6884
:10188C001B68FA691340BB61BA69FB699A4240F064
:10189C0050813B685B68974A93425ED0954A93426D
:1018AC0075D8954A934258D0934A93426FD8934A2D
:1018BC00934252D0914A934269D8914A93424CD068
:1018CC008F4A934263D88F4A934246D08D4A9342B3
:1018DC005DD8122B2AD8122B59D801A252F823F01A
:1018EC0067190008411900085319000895190008D8
:1018FC009B1900089B1900089B1900089B190008EC
:10190C009B1900089B1900089B1900089B190008DB
:10191C009B1900089B1900089B1900089B190008CB
:10192C009B190008491900085D190008764A934272
:10193C0013D02CE03B68DB683B6229E03B68DB683A
:10194C0004333B6224E03B68DB6808333B621FE0F6
:10195C003B68DB680C333B621AE03B689B68002BEE
:10196C0002D104233B6213E03B689B68012B05D139
:10197C0008233B627B68FA691A6109E008233B6221
:10198C007B68FA695A6103E000233B6200E000BF08
:10199C00BB69FF2B01D87B6801E07B6804337B615A
:1019AC00BB69FF2B02D87B6A9B0002E07B6A083B79
:1019BC009B003B617B691A680F213B6901FA03F3B9
:1019CC00DB431A40396A3B6901FA03F31A437B691A
:1019DC001A603B685B6803F08053002B00F0A98011
:1019EC004A4B9B69494A43F001039361474B9B69FE
:1019FC0003F00103BB60BB68454A7B6A9B0802335A
:101A0C0052F82330FB607B6A03F003039B000F2228
:101A1C0002FA03F3DB43FA681340FB607B683D4A30
:101A2C0093420DD07B683C4A934207D07B683B4A7B
:101A3C00934201D1022304E0032302E0012300E0DE
:101A4C0000237A6A02F0030292009340FA6813436F
:101A5C00FB602F497B6A9B080233FA6841F823200C
:101A6C003B685B6803F48033002B06D02C4B1A6860
:101A7C002B49BB6913430B6006E0294B1A68BB6901
:101A8C00DB43274913400B603B685B6803F400336E
:101A9C00002B06D0224B5A682149BB6913434B607B
:101AAC0006E01F4B5A68BB69DB431D4913404B6072
:101ABC003B685B6803F48013002B06D0184B9A68C4
:101ACC001749BB6913438B6006E0154B9A68BB69D9
:101ADC00DB43134913408B603B685B6803F40013D2
:101AEC00002B1FD00E4BDA680D49BB691343CB603A
:101AFC001FE000BF00003210000031100000221067
:101B0C000000211000001210000011100010024003
:101B1C000000014000080140000C01400010014091
:101B2C00000401400B4BDA68BB69DB4309491340E5
:101B3C00CB607B6A01337B623B681A687B6A22FA52
:101B4C0003F3002B7FF496AE00BF00BF2C37BD46CD
:101B5C0080BC70470004014080B485B000AF786051
:101B6C000B467B807B689A687B881340002B02D0E5
:101B7C000123FB7301E00023FB73FB7B1846143736
:101B8C00BD4680BC704780B483B000AF78600B4614
:101B9C007B8013467B707B78002B03D07A887B6824
:101BAC001A6103E07B881A047B681A6100BF0C374A
:101BBC00BD4680BC704780B485B000AF78600B46E2
:101BCC007B807B68DB68FB607A88FB6813401A04B7
:101BDC00FB68D9437B880B401A437B681A6100BFB2
:101BEC001437BD4680BC704780B586B000AF7860B6
:101BFC007B68002B01D1012372E27B681B6803F028
:101C0C000103002B00F08780924B5B6803F00C0300
:101C1C00042B0CD08F4B5B6803F00C03082B12D1F8
:101C2C008C4B5B6803F48033B3F5803F0BD1894B4D
:101C3C001B6803F40033002B6CD07B685B68002BB3
:101C4C0068D101234CE27B685B68B3F5803F06D119
:101C5C00804B1B687F4A43F4803313602EE07B6813
:101C6C005B68002B0CD17B4B1B687A4A23F48033C6
:101C7C001360784B1B68774A23F4802313601DE0B4
:101C8C007B685B68B3F5A02F0CD1724B1B68714A53
:101C9C0043F4802313606F4B1B686E4A43F480330C
:101CAC0013600BE06B4B1B686A4A23F480331360A0
:101CBC00684B1B68674A23F4802313607B685B685E
:101CCC00002B13D0FFF7B4FC386108E0FFF7B0FC31
:101CDC0002463B69D31A642B01D9032300E25D4B06
:101CEC001B6803F40033002BF0D014E0FFF7A0FCCA
:101CFC00386108E0FFF79CFC02463B69D31A642B61
:101D0C0001D90323ECE1534B1B6803F40033002B84
:101D1C00F0D100E000BF7B681B6803F00203002BCE
:101D2C0063D04C4B5B6803F00C03002B0BD0494B7E
:101D3C005B6803F00C03082B1CD1464B5B6803F467
:101D4C008033002B16D1434B1B6803F00203002B8E
:101D5C0005D07B681B69012B01D00123C0E13D4BF1
:101D6C001B6823F0F8027B685B69DB00394913437D
:101D7C000B603AE07B681B69002B20D0364B0122AC
:101D8C001A60FFF755FC386108E0FFF751FC02467A
:101D9C003B69D31A022B01D90323A1E12D4B1B68FC
:101DAC0003F00203002BF0D02A4B1B6823F0F8023F
:101DBC007B685B69DB00274913430B6015E0264BFE
:101DCC0000221A60FFF734FC386108E0FFF730FCA2
:101DDC0002463B69D31A022B01D9032380E11D4B28
:101DEC001B6803F00203002BF0D17B681B6803F027
:101DFC000803002B3AD07B689B69002B19D0174B3A
:101E0C0001221A60FFF714FC386108E0FFF710FCA0
:101E1C0002463B69D31A022B01D9032360E10D4B17
:101E2C005B6A03F00203002BF0D0012000F0A6FA4D
:101E3C001CE00A4B00221A60FFF7FAFB38610FE036
:101E4C00FFF7F6FB02463B69D31A022B08D9032392
:101E5C0046E100BF001002400000424280044242B2
:101E6C00924B5B6A03F00203002BE9D17B681B6881
:101E7C0003F00403002B00F0A6800023FB758B4BB2
:101E8C00DB6903F08053002B0DD1884BDB69874A4B
:101E9C0043F08053D361854BDB6903F08053BB6007
:101EAC00BB680123FB75824B1B6803F48073002B0A
:101EBC0018D17F4B1B687E4A43F480731360FFF785
:101ECC00B7FB386108E0FFF7B3FB02463B69D31A56
:101EDC00642B01D9032303E1754B1B6803F4807356
:101EEC00002BF0D07B68DB68012B06D16F4B1B6A93
:101EFC006E4A43F0010313622DE07B68DB68002B14
:101F0C000CD16A4B1B6A694A23F001031362674BBD
:101F1C001B6A664A23F0040313621CE07B68DB68CF
:101F2C00052B0CD1614B1B6A604A43F0040313620E
:101F3C005E4B1B6A5D4A43F0010313620BE05B4B83
:101F4C001B6A5A4A23F001031362584B1B6A574A07
:101F5C0023F0040313627B68DB68002B15D0FFF7BA
:101F6C0067FB38610AE0FFF763FB02463B69D31A53
:101F7C0041F28832934201D90323B1E04B4B1B6AE7
:101F8C0003F00203002BEED014E0FFF751FB386195
:101F9C000AE0FFF74DFB02463B69D31A41F2883247
:101FAC00934201D903239BE0404B1B6A03F00203CD
:101FBC00002BEED1FB7D012B05D13C4BDB693B4A61
:101FCC0023F08053D3617B68DB69002B00F08780A2
:101FDC00364B5B6803F00C03082B61D07B68DB6924
:101FEC00022B46D1334B00221A60FFF721FB3861DC
:101FFC0008E0FFF71DFB02463B69D31A022B01D9FF
:10200C0003236DE0294B1B6803F00073002BF0D108
:10201C007B681B6AB3F5803F08D1244B5B6823F4C3
:10202C0000327B689B68214913434B601F4B5B68F4
:10203C0023F474127B68196A7B685B6A0B431B4937
:10204C0013434B601B4B01221A60FFF7F1FA386106
:10205C0008E0FFF7EDFA02463B69D31A022B01D9CF
:10206C0003233DE0114B1B6803F00073002BF0D0F1
:10207C0035E0104B00221A60FFF7DAFA386108E0FD
:10208C00FFF7D6FA02463B69D31A022B01D9032378
:10209C0026E0064B1B6803F00073002BF0D11EE00A
:1020AC007B68DB69012B07D1012319E0001002408A
:1020BC0000700040600042420B4B5B68FB60FB68A9
:1020CC0003F480327B681B6A9A4206D1FB6803F4E6
:1020DC0070127B685B6A9A4201D0012300E00023F6
:1020EC0018461837BD4680BD0010024080B584B03C
:1020FC0000AF786039607B68002B01D10123D0E000
:10210C006A4B1B6803F007033A689A4210D9674B75
:10211C001B6823F0070265493B6813430B60634B54
:10212C001B6803F007033A689A4201D00123B8E018
:10213C007B681B6803F00203002B20D07B681B68B4
:10214C0003F00403002B05D0594B5B68584A43F449
:10215C00E06353607B681B6803F00803002B05D019
:10216C00534B5B68524A43F460535360504B5B686B
:10217C0023F0F0027B689B684D4913434B607B68EE
:10218C001B6803F00103002B40D07B685B68012BBC
:10219C0007D1474B1B6803F40033002B15D10123E7
:1021AC007FE07B685B68022B07D1414B1B6803F017
:1021BC000073002B09D1012373E03D4B1B6803F026
:1021CC000203002B01D101236BE0394B5B6823F038
:1021DC0003027B685B68364913434B60FFF728FAB0
:1021EC00F8600AE0FFF724FA0246FB68D31A41F2C2
:1021FC008832934201D9032353E02D4B5B6803F0E3
:10220C000C027B685B689B009A42EBD1274B1B68E6
:10221C0003F007033A689A4210D2244B1B6823F050
:10222C00070222493B6813430B60204B1B6803F0E9
:10223C0007033A689A4201D0012332E07B681B689D
:10224C0003F00403002B08D0194B5B6823F4E06205
:10225C007B68DB68164913434B607B681B6803F093
:10226C000803002B09D0124B5B6823F460527B6887
:10227C001B69DB000E4913434B6000F021F802464A
:10228C000B4B5B681B0903F00F030A49CB5C22FA6A
:10229C0003F3094A1360094B1B681846FFF786F9CC
:1022AC00002318461037BD4680BD00BF00200240F9
:1022BC00001002400C2C0008540000205800002094
:1022CC0090B48AB000AF294B3C1D0FCB84E80F00B3
:1022DC0040F201233B800023FB610023BB61002300
:1022EC007B6200237B6100233B62214B5B68FB61BB
:1022FC00FB6903F00C03042B02D0082B03D02BE05A
:10230C001C4B3B622BE0FB699B0C03F00F03283347
:10231C003B4413F8243C7B61FB6903F48033002BB2
:10232C0012D0134B5B685B0C03F0010328333B4466
:10233C0013F8283CBB617B690E4A03FB02F2BB69B4
:10234C00B2FBF3F37B6204E07B690B4A02FB03F301
:10235C007B627B6A3B6202E0064B3B6200BF3B6ADE
:10236C0018462837BD4690BC704700BFFC2B0008B0
:10237C000010024000127A0000093D0080B485B0C4
:10238C0000AF78600A4B1B680A4AA2FB03235B0A66
:10239C007A6802FB03F3FB6000BFFB685A1EFA600D
:1023AC00002BF9D100BF00BF1437BD4680BC70476D
:1023BC0054000020D34D621080B582B000AF78601D
:1023CC007B68002B01D1012341E07B6893F83D3001
:1023DC00DBB2002B06D17B68002283F83C207868A6
:1023EC00FFF74CF87B68022283F83D207B681A6863
:1023FC007B6804331946104600F06AFA7B680122A8
:10240C0083F846207B68012283F83E207B680122FA
:10241C0083F83F207B68012283F840207B680122EF
:10242C0083F841207B68012283F842207B680122DB
:10243C0083F843207B68012283F844207B680122C7
:10244C0083F845207B68012283F83D200023184641
:10245C000837BD4680BD000080B485B000AF786001
:10246C007B6893F83D30DBB2012B01D0012335E0C2
:10247C007B68022283F83D207B681B68DA687B68E6
:10248C001B6842F00102DA607B681B68164A9342B3
:10249C0009D07B681B68B3F1804F04D07B681B6844
:1024AC00124A934211D17B681B689B6803F00703A7
:1024BC00FB60FB68062B10D07B681B681A687B6876
:1024CC001B6842F001021A6007E07B681B681A68FF
:1024DC007B681B6842F001021A600023184614370F
:1024EC00BD4680BC704700BF002C0140000400407A
:1024FC0080B582B000AF78607B681B681B6903F005
:10250C000203022B22D17B681B68DB6803F00203F9
:10251C00022B1BD17B681B686FF002021A617B686F
:10252C0001221A777B681B689B6903F00303002B5D
:10253C0003D0786800F0B1F905E0786800F0A4F9F0
:10254C00786800F0B3F97B6800221A777B681B6807
:10255C001B6903F00403042B22D17B681B68DB6826
:10256C0003F00403042B1BD17B681B686FF004027F
:10257C001A617B6802221A777B681B689B6903F4DB
:10258C004073002B03D0786800F087F905E0786879
:10259C0000F07AF9786800F089F97B6800221A77E4
:1025AC007B681B681B6903F00803082B22D17B682E
:1025BC001B68DB6803F00803082B1BD17B681B68C6
:1025CC006FF008021A617B6804221A777B681B681B
:1025DC00DB6903F00303002B03D0786800F05DF98E
:1025EC0005E0786800F050F9786800F05FF97B68D6
:1025FC0000221A777B681B681B6903F01003102BF1
:10260C0022D17B681B68DB6803F01003102B1BD1F5
:10261C007B681B686FF010021A617B6808221A77BE
:10262C007B681B68DB6903F44073002B03D078686C
:10263C0000F033F905E0786800F026F9786800F0CE
:10264C0035F97B6800221A777B681B681B6903F0DD
:10265C000103012B0ED17B681B68DB6803F00103BF
:10266C00012B07D17B681B686FF001021A61786837
:10267C00FEF798FB7B681B681B6903F08003802BBB
:10268C000ED17B681B68DB6803F08003802B07D1BD
:10269C007B681B686FF080021A61786800F067FA3B
:1026AC007B681B681B6903F04003402B0ED17B68D1
:1026BC001B68DB6803F04003402B07D17B681B6869
:1026CC006FF040021A61786800F0F9F87B681B68BB
:1026DC001B6903F02003202B0ED17B681B68DB6881
:1026EC0003F02003202B07D17B681B686FF02002BE
:1026FC001A61786800F032FA00BF0837BD4680BD19
:10270C0080B584B000AF786039607B6893F83C305A
:10271C00012B01D10223B3E07B68012283F83C201A
:10272C007B68022283F83D207B681B689B68FB60FA
:10273C00FB6823F07703FB60FB6823F47F43FB60AB
:10274C007B681B68FA689A603B681B68B3F5005F8E
:10275C003ED0B3F5005F00F28780B3F5805F00F0E8
:10276C008580B3F5805F7FD8702B1AD0702B7BD807
:10277C00602B50D0602B77D8502B3CD0502B73D87B
:10278C00402B58D0402B6FD8302B64D0302B6BD8CB
:10279C00202B60D0202B67D8002B5CD0102B5AD06C
:1027AC0062E07B6818683B6899683B685A683B68CC
:1027BC00DB6800F05CF97B681B689B68FB60FB685E
:1027CC0043F07703FB607B681B68FA689A604EE005
:1027DC007B6818683B6899683B685A683B68DB689B
:1027EC0000F045F97B681B689A687B681B6842F4AB
:1027FC0080429A603BE07B6818683B6859683B688C
:10280C00DB681A4600F0BCF87B681B685021184640
:10281C0000F013F92BE07B6818683B6859683B683B
:10282C00DB681A4600F0DAF87B681B6860211846F2
:10283C0000F003F91BE07B6818683B6859683B683B
:10284C00DB681A4600F09CF87B681B684021184630
:10285C0000F0F3F80BE07B681A683B681B681946BC
:10286C00104600F0EAF802E000BF00E000BF7B6811
:10287C00012283F83D207B68002283F83C20002352
:10288C0018461037BD4680BD80B483B000AF786069
:10289C0000BF0C37BD4680BC704780B483B000AF1E
:1028AC00786000BF0C37BD4680BC704780B483B0E5
:1028BC0000AF786000BF0C37BD4680BC704780B459
:1028CC0083B000AF786000BF0C37BD4680BC70474A
:1028DC0080B485B000AF786039607B681B68FB60A2
:1028EC007B68254A934207D07B68B3F1804F03D0B5
:1028FC007B68224A934208D1FB6823F07003FB608B
:10290C003B685B68FA681343FB607B681A4A934226
:10291C0007D07B68B3F1804F03D07B68174A934292
:10292C0008D1FB6823F44073FB603B68DB68FA68F2
:10293C001343FB60FB6823F080023B685B69134325
:10294C00FB607B68FA681A603B689A687B68DA629D
:10295C003B681A687B689A627B68074A934203D18A
:10296C003B681A697B681A637B6801225A6100BF55
:10297C001437BD4680BC7047002C01400004004059
:10298C0080B487B000AFF860B9607A60FB681B6AEE
:10299C007B61FB681B6A23F00102FB681A62FB680F
:1029AC009B693B613B6923F0F0033B617B681B0136
:1029BC003A6913433B617B6923F00A037B617A69B3
:1029CC00BB6813437B61FB683A699A61FB687A695F
:1029DC001A6200BF1C37BD4680BC704780B487B0FC
:1029EC0000AFF860B9607A60FB681B6A23F01002D4
:1029FC00FB681A62FB689B697B61FB681B6A3B6125
:102A0C007B6923F470437B617B681B037A691343F6
:102A1C007B613B6923F0A0033B61BB681B013A69F6
:102A2C0013433B61FB687A699A61FB683A691A62E5
:102A3C0000BF1C37BD4680BC704780B485B000AF6A
:102A4C00786039607B689B68FB60FB6823F07003DF
:102A5C00FB603A68FB68134343F00703FB607B6839
:102A6C00FA689A6000BF1437BD4680BC704780B4CA
:102A7C0087B000AFF860B9607A603B60FB689B6818
:102A8C007B617B6923F47F437B613B681A027B6823
:102A9C001A43BB6813437A6913437B61FB687A69F9
:102AAC009A6000BF1C37BD4680BC704780B485B0AF
:102ABC0000AF786039607B6893F83C30012B01D112
:102ACC00022341E07B68012283F83C207B680222D0
:102ADC0083F83D207B681B685B68FB607B681B6828
:102AEC009B68BB60FB6823F07003FB603B681B6852
:102AFC00FA681343FB607B681B68FA685A607B6852
:102B0C001B68144A934209D07B681B68B3F1804F51
:102B1C0004D07B681B68104A93420CD1BB6823F02D
:102B2C008003BB603B685B68BA681343BB607B681F
:102B3C001B68BA689A607B68012283F83D207B6829
:102B4C00002283F83C20002318461437BD4680BC75
:102B5C00704700BF002C01400004004080B483B0DB
:102B6C0000AF786000BF0C37BD4680BC704780B4A6
:102B7C0083B000AF786000BF0C37BD4680BC704797
:102B8C0070B500260C4D0D4C641BA410A64209D147
:102B9C0000F022F800260A4D0A4C641BA410A64231
:102BAC0005D170BD55F8043B98470136EEE755F852
:102BBC00043B98470136F2E71C2C00081C2C00083B
:102BCC001C2C0008202C000803460244934200D120
:102BDC00704703F8011BF9E7F8B500BFF8BC08BC57
:102BEC009E467047F8B500BFF8BC08BC9E467047BF
:102BFC0002030405060708090A0B0C0D0E0F101032
:102C0C000000000000000000010203040607080990
:042C1C00310100087A
:042C20000D0100089A
:102C2400010000000100000001000000010000009C
:102C3400010000000100000001000000010000008C
:102C4400C800000001000000620000000500000050
:102C54006400000005000000030000000200000002
:102C64000500000003000000020000000A0000004C
:102C7400010000000024F400100000000100000026
:040000050800154199
:00000001FF
